{
	"web3/test.sol": {
		"Error": {
			"abi": [
				{
					"inputs": [
						{
							"internalType": "address",
							"name": "",
							"type": "address"
						},
						{
							"internalType": "uint256",
							"name": "",
							"type": "uint256"
						}
					],
					"name": "MyError",
					"type": "error"
				},
				{
					"inputs": [
						{
							"internalType": "uint256",
							"name": "x",
							"type": "uint256"
						}
					],
					"name": "useAssert",
					"outputs": [],
					"stateMutability": "pure",
					"type": "function"
				},
				{
					"inputs": [
						{
							"internalType": "uint256",
							"name": "x",
							"type": "uint256"
						}
					],
					"name": "useCustomError",
					"outputs": [],
					"stateMutability": "view",
					"type": "function"
				},
				{
					"inputs": [
						{
							"internalType": "uint256",
							"name": "x",
							"type": "uint256"
						}
					],
					"name": "useRequire",
					"outputs": [],
					"stateMutability": "pure",
					"type": "function"
				},
				{
					"inputs": [
						{
							"internalType": "uint256",
							"name": "x",
							"type": "uint256"
						}
					],
					"name": "useRevert",
					"outputs": [],
					"stateMutability": "pure",
					"type": "function"
				}
			],
			"devdoc": {
				"kind": "dev",
				"methods": {},
				"version": 1
			},
			"evm": {
				"assembly": "    /* \"web3/test.sol\":3027:3553  contract Error {... */\n  mstore(0x40, 0x80)\n  callvalue\n  dup1\n  iszero\n  tag_1\n  jumpi\n  0x00\n  dup1\n  revert\ntag_1:\n  pop\n  dataSize(sub_0)\n  dup1\n  dataOffset(sub_0)\n  0x00\n  codecopy\n  0x00\n  return\nstop\n\nsub_0: assembly {\n        /* \"web3/test.sol\":3027:3553  contract Error {... */\n      mstore(0x40, 0x80)\n      callvalue\n      dup1\n      iszero\n      tag_1\n      jumpi\n      0x00\n      dup1\n      revert\n    tag_1:\n      pop\n      jumpi(tag_2, lt(calldatasize, 0x04))\n      shr(0xe0, calldataload(0x00))\n      dup1\n      0x1d48a8c7\n      eq\n      tag_3\n      jumpi\n      dup1\n      0x32901183\n      eq\n      tag_4\n      jumpi\n      dup1\n      0x79b99214\n      eq\n      tag_5\n      jumpi\n      dup1\n      0xb21040cb\n      eq\n      tag_6\n      jumpi\n    tag_2:\n      0x00\n      dup1\n      revert\n        /* \"web3/test.sol\":3302:3377  function useAssert(uint x) external pure {... */\n    tag_3:\n      tag_7\n      0x04\n      dup1\n      calldatasize\n      sub\n      dup2\n      add\n      swap1\n      tag_8\n      swap2\n      swap1\n      tag_9\n      jump\t// in\n    tag_8:\n      tag_10\n      jump\t// in\n    tag_7:\n      stop\n        /* \"web3/test.sol\":3049:3172  function useRequire(uint x) external pure {... */\n    tag_4:\n      tag_11\n      0x04\n      dup1\n      calldatasize\n      sub\n      dup2\n      add\n      swap1\n      tag_12\n      swap2\n      swap1\n      tag_9\n      jump\t// in\n    tag_12:\n      tag_13\n      jump\t// in\n    tag_11:\n      stop\n        /* \"web3/test.sol\":3180:3294  function useRevert(uint x) external pure {... */\n    tag_5:\n      tag_14\n      0x04\n      dup1\n      calldatasize\n      sub\n      dup2\n      add\n      swap1\n      tag_15\n      swap2\n      swap1\n      tag_9\n      jump\t// in\n    tag_15:\n      tag_16\n      jump\t// in\n    tag_14:\n      stop\n        /* \"web3/test.sol\":3420:3550  function useCustomError(uint x) public view {... */\n    tag_6:\n      tag_17\n      0x04\n      dup1\n      calldatasize\n      sub\n      dup2\n      add\n      swap1\n      tag_18\n      swap2\n      swap1\n      tag_9\n      jump\t// in\n    tag_18:\n      tag_19\n      jump\t// in\n    tag_17:\n      stop\n        /* \"web3/test.sol\":3302:3377  function useAssert(uint x) external pure {... */\n    tag_10:\n        /* \"web3/test.sol\":3366:3368  10 */\n      0x0a\n        /* \"web3/test.sol\":3361:3362  x */\n      dup2\n        /* \"web3/test.sol\":3361:3368  x <= 10 */\n      gt\n      iszero\n        /* \"web3/test.sol\":3354:3369  assert(x <= 10) */\n      tag_21\n      jumpi\n      tag_22\n      tag_23\n      jump\t// in\n    tag_22:\n    tag_21:\n        /* \"web3/test.sol\":3302:3377  function useAssert(uint x) external pure {... */\n      pop\n      jump\t// out\n        /* \"web3/test.sol\":3049:3172  function useRequire(uint x) external pure {... */\n    tag_13:\n        /* \"web3/test.sol\":3151:3153  10 */\n      0x0a\n        /* \"web3/test.sol\":3146:3147  x */\n      dup2\n        /* \"web3/test.sol\":3146:3153  x <= 10 */\n      gt\n      iszero\n        /* \"web3/test.sol\":3138:3164  require(x <= 10, \"i > 10\") */\n      tag_25\n      jumpi\n      mload(0x40)\n      0x08c379a000000000000000000000000000000000000000000000000000000000\n      dup2\n      mstore\n      0x04\n      add\n      tag_26\n      swap1\n      tag_27\n      jump\t// in\n    tag_26:\n      mload(0x40)\n      dup1\n      swap2\n      sub\n      swap1\n      revert\n    tag_25:\n        /* \"web3/test.sol\":3049:3172  function useRequire(uint x) external pure {... */\n      pop\n      jump\t// out\n        /* \"web3/test.sol\":3180:3294  function useRevert(uint x) external pure {... */\n    tag_16:\n        /* \"web3/test.sol\":3240:3242  10 */\n      0x0a\n        /* \"web3/test.sol\":3236:3237  x */\n      dup2\n        /* \"web3/test.sol\":3236:3242  x > 10 */\n      gt\n        /* \"web3/test.sol\":3232:3287  if (x > 10) {... */\n      iszero\n      tag_29\n      jumpi\n        /* \"web3/test.sol\":3259:3275  revert(\"i > 10\") */\n      mload(0x40)\n      0x08c379a000000000000000000000000000000000000000000000000000000000\n      dup2\n      mstore\n      0x04\n      add\n      tag_30\n      swap1\n      tag_27\n      jump\t// in\n    tag_30:\n      mload(0x40)\n      dup1\n      swap2\n      sub\n      swap1\n      revert\n        /* \"web3/test.sol\":3232:3287  if (x > 10) {... */\n    tag_29:\n        /* \"web3/test.sol\":3180:3294  function useRevert(uint x) external pure {... */\n      pop\n      jump\t// out\n        /* \"web3/test.sol\":3420:3550  function useCustomError(uint x) public view {... */\n    tag_19:\n        /* \"web3/test.sol\":3483:3485  10 */\n      0x0a\n        /* \"web3/test.sol\":3479:3480  x */\n      dup2\n        /* \"web3/test.sol\":3479:3485  x > 10 */\n      gt\n        /* \"web3/test.sol\":3475:3543  if (x > 10) {... */\n      iszero\n      tag_32\n      jumpi\n        /* \"web3/test.sol\":3517:3527  msg.sender */\n      caller\n        /* \"web3/test.sol\":3529:3530  x */\n      dup2\n        /* \"web3/test.sol\":3509:3531  MyError(msg.sender, x) */\n      mload(0x40)\n      0xe2399bb800000000000000000000000000000000000000000000000000000000\n      dup2\n      mstore\n      0x04\n      add\n      tag_33\n      swap3\n      swap2\n      swap1\n      tag_34\n      jump\t// in\n    tag_33:\n      mload(0x40)\n      dup1\n      swap2\n      sub\n      swap1\n      revert\n        /* \"web3/test.sol\":3475:3543  if (x > 10) {... */\n    tag_32:\n        /* \"web3/test.sol\":3420:3550  function useCustomError(uint x) public view {... */\n      pop\n      jump\t// out\n        /* \"#utility.yul\":88:205   */\n    tag_36:\n        /* \"#utility.yul\":197:198   */\n      0x00\n        /* \"#utility.yul\":194:195   */\n      dup1\n        /* \"#utility.yul\":187:199   */\n      revert\n        /* \"#utility.yul\":334:411   */\n    tag_38:\n        /* \"#utility.yul\":371:378   */\n      0x00\n        /* \"#utility.yul\":400:405   */\n      dup2\n        /* \"#utility.yul\":389:405   */\n      swap1\n      pop\n        /* \"#utility.yul\":334:411   */\n      swap2\n      swap1\n      pop\n      jump\t// out\n        /* \"#utility.yul\":417:539   */\n    tag_39:\n        /* \"#utility.yul\":490:514   */\n      tag_54\n        /* \"#utility.yul\":508:513   */\n      dup2\n        /* \"#utility.yul\":490:514   */\n      tag_38\n      jump\t// in\n    tag_54:\n        /* \"#utility.yul\":483:488   */\n      dup2\n        /* \"#utility.yul\":480:515   */\n      eq\n        /* \"#utility.yul\":470:533   */\n      tag_55\n      jumpi\n        /* \"#utility.yul\":529:530   */\n      0x00\n        /* \"#utility.yul\":526:527   */\n      dup1\n        /* \"#utility.yul\":519:531   */\n      revert\n        /* \"#utility.yul\":470:533   */\n    tag_55:\n        /* \"#utility.yul\":417:539   */\n      pop\n      jump\t// out\n        /* \"#utility.yul\":545:684   */\n    tag_40:\n        /* \"#utility.yul\":591:596   */\n      0x00\n        /* \"#utility.yul\":629:635   */\n      dup2\n        /* \"#utility.yul\":616:636   */\n      calldataload\n        /* \"#utility.yul\":607:636   */\n      swap1\n      pop\n        /* \"#utility.yul\":645:678   */\n      tag_57\n        /* \"#utility.yul\":672:677   */\n      dup2\n        /* \"#utility.yul\":645:678   */\n      tag_39\n      jump\t// in\n    tag_57:\n        /* \"#utility.yul\":545:684   */\n      swap3\n      swap2\n      pop\n      pop\n      jump\t// out\n        /* \"#utility.yul\":690:1019   */\n    tag_9:\n        /* \"#utility.yul\":749:755   */\n      0x00\n        /* \"#utility.yul\":798:800   */\n      0x20\n        /* \"#utility.yul\":786:795   */\n      dup3\n        /* \"#utility.yul\":777:784   */\n      dup5\n        /* \"#utility.yul\":773:796   */\n      sub\n        /* \"#utility.yul\":769:801   */\n      slt\n        /* \"#utility.yul\":766:885   */\n      iszero\n      tag_59\n      jumpi\n        /* \"#utility.yul\":804:883   */\n      tag_60\n      tag_36\n      jump\t// in\n    tag_60:\n        /* \"#utility.yul\":766:885   */\n    tag_59:\n        /* \"#utility.yul\":924:925   */\n      0x00\n        /* \"#utility.yul\":949:1002   */\n      tag_61\n        /* \"#utility.yul\":994:1001   */\n      dup5\n        /* \"#utility.yul\":985:991   */\n      dup3\n        /* \"#utility.yul\":974:983   */\n      dup6\n        /* \"#utility.yul\":970:992   */\n      add\n        /* \"#utility.yul\":949:1002   */\n      tag_40\n      jump\t// in\n    tag_61:\n        /* \"#utility.yul\":939:1002   */\n      swap2\n      pop\n        /* \"#utility.yul\":895:1012   */\n      pop\n        /* \"#utility.yul\":690:1019   */\n      swap3\n      swap2\n      pop\n      pop\n      jump\t// out\n        /* \"#utility.yul\":1025:1205   */\n    tag_23:\n        /* \"#utility.yul\":1073:1150   */\n      0x4e487b7100000000000000000000000000000000000000000000000000000000\n        /* \"#utility.yul\":1070:1071   */\n      0x00\n        /* \"#utility.yul\":1063:1151   */\n      mstore\n        /* \"#utility.yul\":1170:1174   */\n      0x01\n        /* \"#utility.yul\":1167:1168   */\n      0x04\n        /* \"#utility.yul\":1160:1175   */\n      mstore\n        /* \"#utility.yul\":1194:1198   */\n      0x24\n        /* \"#utility.yul\":1191:1192   */\n      0x00\n        /* \"#utility.yul\":1184:1199   */\n      revert\n        /* \"#utility.yul\":1211:1380   */\n    tag_41:\n        /* \"#utility.yul\":1295:1306   */\n      0x00\n        /* \"#utility.yul\":1329:1335   */\n      dup3\n        /* \"#utility.yul\":1324:1327   */\n      dup3\n        /* \"#utility.yul\":1317:1336   */\n      mstore\n        /* \"#utility.yul\":1369:1373   */\n      0x20\n        /* \"#utility.yul\":1364:1367   */\n      dup3\n        /* \"#utility.yul\":1360:1374   */\n      add\n        /* \"#utility.yul\":1345:1374   */\n      swap1\n      pop\n        /* \"#utility.yul\":1211:1380   */\n      swap3\n      swap2\n      pop\n      pop\n      jump\t// out\n        /* \"#utility.yul\":1386:1542   */\n    tag_42:\n        /* \"#utility.yul\":1526:1534   */\n      0x69203e2031300000000000000000000000000000000000000000000000000000\n        /* \"#utility.yul\":1522:1523   */\n      0x00\n        /* \"#utility.yul\":1514:1520   */\n      dup3\n        /* \"#utility.yul\":1510:1524   */\n      add\n        /* \"#utility.yul\":1503:1535   */\n      mstore\n        /* \"#utility.yul\":1386:1542   */\n      pop\n      jump\t// out\n        /* \"#utility.yul\":1548:1913   */\n    tag_43:\n        /* \"#utility.yul\":1690:1693   */\n      0x00\n        /* \"#utility.yul\":1711:1777   */\n      tag_66\n        /* \"#utility.yul\":1775:1776   */\n      0x06\n        /* \"#utility.yul\":1770:1773   */\n      dup4\n        /* \"#utility.yul\":1711:1777   */\n      tag_41\n      jump\t// in\n    tag_66:\n        /* \"#utility.yul\":1704:1777   */\n      swap2\n      pop\n        /* \"#utility.yul\":1786:1879   */\n      tag_67\n        /* \"#utility.yul\":1875:1878   */\n      dup3\n        /* \"#utility.yul\":1786:1879   */\n      tag_42\n      jump\t// in\n    tag_67:\n        /* \"#utility.yul\":1904:1906   */\n      0x20\n        /* \"#utility.yul\":1899:1902   */\n      dup3\n        /* \"#utility.yul\":1895:1907   */\n      add\n        /* \"#utility.yul\":1888:1907   */\n      swap1\n      pop\n        /* \"#utility.yul\":1548:1913   */\n      swap2\n      swap1\n      pop\n      jump\t// out\n        /* \"#utility.yul\":1919:2338   */\n    tag_27:\n        /* \"#utility.yul\":2085:2089   */\n      0x00\n        /* \"#utility.yul\":2123:2125   */\n      0x20\n        /* \"#utility.yul\":2112:2121   */\n      dup3\n        /* \"#utility.yul\":2108:2126   */\n      add\n        /* \"#utility.yul\":2100:2126   */\n      swap1\n      pop\n        /* \"#utility.yul\":2172:2181   */\n      dup2\n        /* \"#utility.yul\":2166:2170   */\n      dup2\n        /* \"#utility.yul\":2162:2182   */\n      sub\n        /* \"#utility.yul\":2158:2159   */\n      0x00\n        /* \"#utility.yul\":2147:2156   */\n      dup4\n        /* \"#utility.yul\":2143:2160   */\n      add\n        /* \"#utility.yul\":2136:2183   */\n      mstore\n        /* \"#utility.yul\":2200:2331   */\n      tag_69\n        /* \"#utility.yul\":2326:2330   */\n      dup2\n        /* \"#utility.yul\":2200:2331   */\n      tag_43\n      jump\t// in\n    tag_69:\n        /* \"#utility.yul\":2192:2331   */\n      swap1\n      pop\n        /* \"#utility.yul\":1919:2338   */\n      swap2\n      swap1\n      pop\n      jump\t// out\n        /* \"#utility.yul\":2344:2470   */\n    tag_44:\n        /* \"#utility.yul\":2381:2388   */\n      0x00\n        /* \"#utility.yul\":2421:2463   */\n      0xffffffffffffffffffffffffffffffffffffffff\n        /* \"#utility.yul\":2414:2419   */\n      dup3\n        /* \"#utility.yul\":2410:2464   */\n      and\n        /* \"#utility.yul\":2399:2464   */\n      swap1\n      pop\n        /* \"#utility.yul\":2344:2470   */\n      swap2\n      swap1\n      pop\n      jump\t// out\n        /* \"#utility.yul\":2476:2572   */\n    tag_45:\n        /* \"#utility.yul\":2513:2520   */\n      0x00\n        /* \"#utility.yul\":2542:2566   */\n      tag_72\n        /* \"#utility.yul\":2560:2565   */\n      dup3\n        /* \"#utility.yul\":2542:2566   */\n      tag_44\n      jump\t// in\n    tag_72:\n        /* \"#utility.yul\":2531:2566   */\n      swap1\n      pop\n        /* \"#utility.yul\":2476:2572   */\n      swap2\n      swap1\n      pop\n      jump\t// out\n        /* \"#utility.yul\":2578:2696   */\n    tag_46:\n        /* \"#utility.yul\":2665:2689   */\n      tag_74\n        /* \"#utility.yul\":2683:2688   */\n      dup2\n        /* \"#utility.yul\":2665:2689   */\n      tag_45\n      jump\t// in\n    tag_74:\n        /* \"#utility.yul\":2660:2663   */\n      dup3\n        /* \"#utility.yul\":2653:2690   */\n      mstore\n        /* \"#utility.yul\":2578:2696   */\n      pop\n      pop\n      jump\t// out\n        /* \"#utility.yul\":2702:2820   */\n    tag_47:\n        /* \"#utility.yul\":2789:2813   */\n      tag_76\n        /* \"#utility.yul\":2807:2812   */\n      dup2\n        /* \"#utility.yul\":2789:2813   */\n      tag_38\n      jump\t// in\n    tag_76:\n        /* \"#utility.yul\":2784:2787   */\n      dup3\n        /* \"#utility.yul\":2777:2814   */\n      mstore\n        /* \"#utility.yul\":2702:2820   */\n      pop\n      pop\n      jump\t// out\n        /* \"#utility.yul\":2826:3158   */\n    tag_34:\n        /* \"#utility.yul\":2947:2951   */\n      0x00\n        /* \"#utility.yul\":2985:2987   */\n      0x40\n        /* \"#utility.yul\":2974:2983   */\n      dup3\n        /* \"#utility.yul\":2970:2988   */\n      add\n        /* \"#utility.yul\":2962:2988   */\n      swap1\n      pop\n        /* \"#utility.yul\":2998:3069   */\n      tag_78\n        /* \"#utility.yul\":3066:3067   */\n      0x00\n        /* \"#utility.yul\":3055:3064   */\n      dup4\n        /* \"#utility.yul\":3051:3068   */\n      add\n        /* \"#utility.yul\":3042:3048   */\n      dup6\n        /* \"#utility.yul\":2998:3069   */\n      tag_46\n      jump\t// in\n    tag_78:\n        /* \"#utility.yul\":3079:3151   */\n      tag_79\n        /* \"#utility.yul\":3147:3149   */\n      0x20\n        /* \"#utility.yul\":3136:3145   */\n      dup4\n        /* \"#utility.yul\":3132:3150   */\n      add\n        /* \"#utility.yul\":3123:3129   */\n      dup5\n        /* \"#utility.yul\":3079:3151   */\n      tag_47\n      jump\t// in\n    tag_79:\n        /* \"#utility.yul\":2826:3158   */\n      swap4\n      swap3\n      pop\n      pop\n      pop\n      jump\t// out\n\n    auxdata: 0xa2646970667358221220b6847d0982774be85dde8a930394df68ccd74bc7f744f8c6c8e8e248b048f46d64736f6c634300081a0033\n}\n",
				"bytecode": {
					"linkReferences": {},
					"object": "6080604052348015600e575f80fd5b5061035e8061001c5f395ff3fe608060405234801561000f575f80fd5b506004361061004a575f3560e01c80631d48a8c71461004e578063329011831461006a57806379b9921414610086578063b21040cb146100a2575b5f80fd5b610068600480360381019061006391906101e3565b6100be565b005b610084600480360381019061007f91906101e3565b6100d3565b005b6100a0600480360381019061009b91906101e3565b61011a565b005b6100bc60048036038101906100b791906101e3565b610161565b005b600a8111156100d0576100cf61020e565b5b50565b600a811115610117576040517f08c379a000000000000000000000000000000000000000000000000000000000815260040161010e90610295565b60405180910390fd5b50565b600a81111561015e576040517f08c379a000000000000000000000000000000000000000000000000000000000815260040161015590610295565b60405180910390fd5b50565b600a8111156101a95733816040517fe2399bb80000000000000000000000000000000000000000000000000000000081526004016101a0929190610301565b60405180910390fd5b50565b5f80fd5b5f819050919050565b6101c2816101b0565b81146101cc575f80fd5b50565b5f813590506101dd816101b9565b92915050565b5f602082840312156101f8576101f76101ac565b5b5f610205848285016101cf565b91505092915050565b7f4e487b71000000000000000000000000000000000000000000000000000000005f52600160045260245ffd5b5f82825260208201905092915050565b7f69203e20313000000000000000000000000000000000000000000000000000005f82015250565b5f61027f60068361023b565b915061028a8261024b565b602082019050919050565b5f6020820190508181035f8301526102ac81610273565b9050919050565b5f73ffffffffffffffffffffffffffffffffffffffff82169050919050565b5f6102dc826102b3565b9050919050565b6102ec816102d2565b82525050565b6102fb816101b0565b82525050565b5f6040820190506103145f8301856102e3565b61032160208301846102f2565b939250505056fea2646970667358221220b6847d0982774be85dde8a930394df68ccd74bc7f744f8c6c8e8e248b048f46d64736f6c634300081a0033",
					"opcodes": "PUSH1 0x80 PUSH1 0x40 MSTORE CALLVALUE DUP1 ISZERO PUSH1 0xE JUMPI PUSH0 DUP1 REVERT JUMPDEST POP PUSH2 0x35E DUP1 PUSH2 0x1C PUSH0 CODECOPY PUSH0 RETURN INVALID PUSH1 0x80 PUSH1 0x40 MSTORE CALLVALUE DUP1 ISZERO PUSH2 0xF JUMPI PUSH0 DUP1 REVERT JUMPDEST POP PUSH1 0x4 CALLDATASIZE LT PUSH2 0x4A JUMPI PUSH0 CALLDATALOAD PUSH1 0xE0 SHR DUP1 PUSH4 0x1D48A8C7 EQ PUSH2 0x4E JUMPI DUP1 PUSH4 0x32901183 EQ PUSH2 0x6A JUMPI DUP1 PUSH4 0x79B99214 EQ PUSH2 0x86 JUMPI DUP1 PUSH4 0xB21040CB EQ PUSH2 0xA2 JUMPI JUMPDEST PUSH0 DUP1 REVERT JUMPDEST PUSH2 0x68 PUSH1 0x4 DUP1 CALLDATASIZE SUB DUP2 ADD SWAP1 PUSH2 0x63 SWAP2 SWAP1 PUSH2 0x1E3 JUMP JUMPDEST PUSH2 0xBE JUMP JUMPDEST STOP JUMPDEST PUSH2 0x84 PUSH1 0x4 DUP1 CALLDATASIZE SUB DUP2 ADD SWAP1 PUSH2 0x7F SWAP2 SWAP1 PUSH2 0x1E3 JUMP JUMPDEST PUSH2 0xD3 JUMP JUMPDEST STOP JUMPDEST PUSH2 0xA0 PUSH1 0x4 DUP1 CALLDATASIZE SUB DUP2 ADD SWAP1 PUSH2 0x9B SWAP2 SWAP1 PUSH2 0x1E3 JUMP JUMPDEST PUSH2 0x11A JUMP JUMPDEST STOP JUMPDEST PUSH2 0xBC PUSH1 0x4 DUP1 CALLDATASIZE SUB DUP2 ADD SWAP1 PUSH2 0xB7 SWAP2 SWAP1 PUSH2 0x1E3 JUMP JUMPDEST PUSH2 0x161 JUMP JUMPDEST STOP JUMPDEST PUSH1 0xA DUP2 GT ISZERO PUSH2 0xD0 JUMPI PUSH2 0xCF PUSH2 0x20E JUMP JUMPDEST JUMPDEST POP JUMP JUMPDEST PUSH1 0xA DUP2 GT ISZERO PUSH2 0x117 JUMPI PUSH1 0x40 MLOAD PUSH32 0x8C379A000000000000000000000000000000000000000000000000000000000 DUP2 MSTORE PUSH1 0x4 ADD PUSH2 0x10E SWAP1 PUSH2 0x295 JUMP JUMPDEST PUSH1 0x40 MLOAD DUP1 SWAP2 SUB SWAP1 REVERT JUMPDEST POP JUMP JUMPDEST PUSH1 0xA DUP2 GT ISZERO PUSH2 0x15E JUMPI PUSH1 0x40 MLOAD PUSH32 0x8C379A000000000000000000000000000000000000000000000000000000000 DUP2 MSTORE PUSH1 0x4 ADD PUSH2 0x155 SWAP1 PUSH2 0x295 JUMP JUMPDEST PUSH1 0x40 MLOAD DUP1 SWAP2 SUB SWAP1 REVERT JUMPDEST POP JUMP JUMPDEST PUSH1 0xA DUP2 GT ISZERO PUSH2 0x1A9 JUMPI CALLER DUP2 PUSH1 0x40 MLOAD PUSH32 0xE2399BB800000000000000000000000000000000000000000000000000000000 DUP2 MSTORE PUSH1 0x4 ADD PUSH2 0x1A0 SWAP3 SWAP2 SWAP1 PUSH2 0x301 JUMP JUMPDEST PUSH1 0x40 MLOAD DUP1 SWAP2 SUB SWAP1 REVERT JUMPDEST POP JUMP JUMPDEST PUSH0 DUP1 REVERT JUMPDEST PUSH0 DUP2 SWAP1 POP SWAP2 SWAP1 POP JUMP JUMPDEST PUSH2 0x1C2 DUP2 PUSH2 0x1B0 JUMP JUMPDEST DUP2 EQ PUSH2 0x1CC JUMPI PUSH0 DUP1 REVERT JUMPDEST POP JUMP JUMPDEST PUSH0 DUP2 CALLDATALOAD SWAP1 POP PUSH2 0x1DD DUP2 PUSH2 0x1B9 JUMP JUMPDEST SWAP3 SWAP2 POP POP JUMP JUMPDEST PUSH0 PUSH1 0x20 DUP3 DUP5 SUB SLT ISZERO PUSH2 0x1F8 JUMPI PUSH2 0x1F7 PUSH2 0x1AC JUMP JUMPDEST JUMPDEST PUSH0 PUSH2 0x205 DUP5 DUP3 DUP6 ADD PUSH2 0x1CF JUMP JUMPDEST SWAP2 POP POP SWAP3 SWAP2 POP POP JUMP JUMPDEST PUSH32 0x4E487B7100000000000000000000000000000000000000000000000000000000 PUSH0 MSTORE PUSH1 0x1 PUSH1 0x4 MSTORE PUSH1 0x24 PUSH0 REVERT JUMPDEST PUSH0 DUP3 DUP3 MSTORE PUSH1 0x20 DUP3 ADD SWAP1 POP SWAP3 SWAP2 POP POP JUMP JUMPDEST PUSH32 0x69203E2031300000000000000000000000000000000000000000000000000000 PUSH0 DUP3 ADD MSTORE POP JUMP JUMPDEST PUSH0 PUSH2 0x27F PUSH1 0x6 DUP4 PUSH2 0x23B JUMP JUMPDEST SWAP2 POP PUSH2 0x28A DUP3 PUSH2 0x24B JUMP JUMPDEST PUSH1 0x20 DUP3 ADD SWAP1 POP SWAP2 SWAP1 POP JUMP JUMPDEST PUSH0 PUSH1 0x20 DUP3 ADD SWAP1 POP DUP2 DUP2 SUB PUSH0 DUP4 ADD MSTORE PUSH2 0x2AC DUP2 PUSH2 0x273 JUMP JUMPDEST SWAP1 POP SWAP2 SWAP1 POP JUMP JUMPDEST PUSH0 PUSH20 0xFFFFFFFFFFFFFFFFFFFFFFFFFFFFFFFFFFFFFFFF DUP3 AND SWAP1 POP SWAP2 SWAP1 POP JUMP JUMPDEST PUSH0 PUSH2 0x2DC DUP3 PUSH2 0x2B3 JUMP JUMPDEST SWAP1 POP SWAP2 SWAP1 POP JUMP JUMPDEST PUSH2 0x2EC DUP2 PUSH2 0x2D2 JUMP JUMPDEST DUP3 MSTORE POP POP JUMP JUMPDEST PUSH2 0x2FB DUP2 PUSH2 0x1B0 JUMP JUMPDEST DUP3 MSTORE POP POP JUMP JUMPDEST PUSH0 PUSH1 0x40 DUP3 ADD SWAP1 POP PUSH2 0x314 PUSH0 DUP4 ADD DUP6 PUSH2 0x2E3 JUMP JUMPDEST PUSH2 0x321 PUSH1 0x20 DUP4 ADD DUP5 PUSH2 0x2F2 JUMP JUMPDEST SWAP4 SWAP3 POP POP POP JUMP INVALID LOG2 PUSH5 0x6970667358 0x22 SLT KECCAK256 0xB6 DUP5 PUSH30 0x982774BE85DDE8A930394DF68CCD74BC7F744F8C6C8E8E248B048F46D64 PUSH20 0x6F6C634300081A00330000000000000000000000 "
				},
				"gasEstimates": {
					"creation": {
						"codeDepositCost": "172400",
						"executionCost": "212",
						"totalCost": "172612"
					},
					"external": {
						"useAssert(uint256)": "430",
						"useCustomError(uint256)": "infinite",
						"useRequire(uint256)": "709",
						"useRevert(uint256)": "731"
					}
				},
				"methodIdentifiers": {
					"useAssert(uint256)": "1d48a8c7",
					"useCustomError(uint256)": "b21040cb",
					"useRequire(uint256)": "32901183",
					"useRevert(uint256)": "79b99214"
				}
			},
			"storageLayout": {
				"storage": [],
				"types": null
			},
			"userdoc": {
				"kind": "user",
				"methods": {},
				"notice": "错误：有三种抛出方式，并且gas消费剩余值会返回，状态变量也会修改回之前状态       require：最常用情景是验证输入是否满足要求或者做一些权限的控制，去控制谁可以调用我们的函数，抛出错误       revert：检查入参       assert：确保入参为真       自定义错误：错误信息越长，越消耗gas，所以可以自定以错误，来节省gas",
				"version": 1
			}
		}
	}
}